{
  "_format": "hh-sol-artifact-1",
  "contractName": "MyContract",
  "sourceName": "contracts/MyContract.sol",
  "abi": [
    {
      "inputs": [],
      "name": "InvalidInitialization",
      "type": "error"
    },
    {
      "inputs": [],
      "name": "NotInitializing",
      "type": "error"
    },
    {
      "anonymous": false,
      "inputs": [
        {
          "indexed": false,
          "internalType": "uint64",
          "name": "version",
          "type": "uint64"
        }
      ],
      "name": "Initialized",
      "type": "event"
    },
    {
      "inputs": [
        {
          "internalType": "uint256",
          "name": "_value",
          "type": "uint256"
        }
      ],
      "name": "initialize",
      "outputs": [],
      "stateMutability": "nonpayable",
      "type": "function"
    },
    {
      "inputs": [
        {
          "internalType": "uint256",
          "name": "_newValue",
          "type": "uint256"
        }
      ],
      "name": "updateValue",
      "outputs": [],
      "stateMutability": "nonpayable",
      "type": "function"
    },
    {
      "inputs": [],
      "name": "value",
      "outputs": [
        {
          "internalType": "uint256",
          "name": "",
          "type": "uint256"
        }
      ],
      "stateMutability": "view",
      "type": "function"
    }
  ],
  "bytecode": "0x608060405234801561001057600080fd5b506103b4806100206000396000f3fe608060405234801561001057600080fd5b50600436106100415760003560e01c80633fa4f24514610046578063573c0bd314610064578063fe4b84df14610080575b600080fd5b61004e61009c565b60405161005b9190610291565b60405180910390f35b61007e600480360381019061007991906102dd565b6100a2565b005b61009a600480360381019061009591906102dd565b6100ac565b005b60005481565b8060008190555050565b60006100b6610239565b905060008160000160089054906101000a900460ff1615905060008260000160009054906101000a900467ffffffffffffffff1690506000808267ffffffffffffffff161480156101045750825b9050600060018367ffffffffffffffff16148015610139575060003073ffffffffffffffffffffffffffffffffffffffff163b145b905081158015610147575080155b1561017e576040517ff92ee8a900000000000000000000000000000000000000000000000000000000815260040160405180910390fd5b60018560000160006101000a81548167ffffffffffffffff021916908367ffffffffffffffff16021790555083156101ce5760018560000160086101000a81548160ff0219169083151502179055505b8560008190555083156102315760008560000160086101000a81548160ff0219169083151502179055507fc7f505b2f371ae2175ee4913f4499e1f2633a7b5936321eed1cdaeb6115181d260016040516102289190610363565b60405180910390a15b505050505050565b60008061024461024d565b90508091505090565b60007ff0c57e16840df040f15088dc2f81fe391c3923bec73e23a9662efc9c229c6a0060001b905090565b6000819050919050565b61028b81610278565b82525050565b60006020820190506102a66000830184610282565b92915050565b600080fd5b6102ba81610278565b81146102c557600080fd5b50565b6000813590506102d7816102b1565b92915050565b6000602082840312156102f3576102f26102ac565b5b6000610301848285016102c8565b91505092915050565b6000819050919050565b600067ffffffffffffffff82169050919050565b6000819050919050565b600061034d6103486103438461030a565b610328565b610314565b9050919050565b61035d81610332565b82525050565b60006020820190506103786000830184610354565b9291505056fea2646970667358221220e129095285a62f37d5be2fba4a8e7b4d3a176987586114f2b31cfccc3837f30764736f6c63430008140033",
  "linkReferences": {},
  "deployedLinkReferences": {}
}