{
  "_format": "hh-sol-artifact-1",
  "contractName": "MyContractV2",
  "sourceName": "contracts/MyContractsV2.sol",
  "abi": [
    {
      "inputs": [],
      "name": "InvalidInitialization",
      "type": "error"
    },
    {
      "inputs": [],
      "name": "NotInitializing",
      "type": "error"
    },
    {
      "anonymous": false,
      "inputs": [
        {
          "indexed": false,
          "internalType": "uint64",
          "name": "version",
          "type": "uint64"
        }
      ],
      "name": "Initialized",
      "type": "event"
    },
    {
      "inputs": [],
      "name": "doubleValue",
      "outputs": [],
      "stateMutability": "nonpayable",
      "type": "function"
    },
    {
      "inputs": [
        {
          "internalType": "uint256",
          "name": "_value",
          "type": "uint256"
        }
      ],
      "name": "initialize",
      "outputs": [],
      "stateMutability": "nonpayable",
      "type": "function"
    },
    {
      "inputs": [
        {
          "internalType": "uint256",
          "name": "_newValue",
          "type": "uint256"
        }
      ],
      "name": "updateValue",
      "outputs": [],
      "stateMutability": "nonpayable",
      "type": "function"
    },
    {
      "inputs": [],
      "name": "value",
      "outputs": [
        {
          "internalType": "uint256",
          "name": "",
          "type": "uint256"
        }
      ],
      "stateMutability": "view",
      "type": "function"
    }
  ],
  "bytecode": "0x608060405234801561001057600080fd5b50610451806100206000396000f3fe608060405234801561001057600080fd5b506004361061004c5760003560e01c80633fa4f24514610051578063573c0bd31461006f578063e37781841461008b578063fe4b84df14610095575b600080fd5b6100596100b1565b60405161006691906102bd565b60405180910390f35b61008960048036038101906100849190610309565b6100b7565b005b6100936100c1565b005b6100af60048036038101906100aa9190610309565b6100d8565b005b60005481565b8060008190555050565b60026000546100d09190610365565b600081905550565b60006100e2610265565b905060008160000160089054906101000a900460ff1615905060008260000160009054906101000a900467ffffffffffffffff1690506000808267ffffffffffffffff161480156101305750825b9050600060018367ffffffffffffffff16148015610165575060003073ffffffffffffffffffffffffffffffffffffffff163b145b905081158015610173575080155b156101aa576040517ff92ee8a900000000000000000000000000000000000000000000000000000000815260040160405180910390fd5b60018560000160006101000a81548167ffffffffffffffff021916908367ffffffffffffffff16021790555083156101fa5760018560000160086101000a81548160ff0219169083151502179055505b85600081905550831561025d5760008560000160086101000a81548160ff0219169083151502179055507fc7f505b2f371ae2175ee4913f4499e1f2633a7b5936321eed1cdaeb6115181d260016040516102549190610400565b60405180910390a15b505050505050565b600080610270610279565b90508091505090565b60007ff0c57e16840df040f15088dc2f81fe391c3923bec73e23a9662efc9c229c6a0060001b905090565b6000819050919050565b6102b7816102a4565b82525050565b60006020820190506102d260008301846102ae565b92915050565b600080fd5b6102e6816102a4565b81146102f157600080fd5b50565b600081359050610303816102dd565b92915050565b60006020828403121561031f5761031e6102d8565b5b600061032d848285016102f4565b91505092915050565b7f4e487b7100000000000000000000000000000000000000000000000000000000600052601160045260246000fd5b6000610370826102a4565b915061037b836102a4565b9250828202610389816102a4565b915082820484148315176103a05761039f610336565b5b5092915050565b6000819050919050565b600067ffffffffffffffff82169050919050565b6000819050919050565b60006103ea6103e56103e0846103a7565b6103c5565b6103b1565b9050919050565b6103fa816103cf565b82525050565b600060208201905061041560008301846103f1565b9291505056fea264697066735822122053ed07f361cce0788802a3d3006199dfca2709d99325cc97210b6f9679b4778e64736f6c63430008140033",
  "linkReferences": {},
  "deployedLinkReferences": {}
}